000TRANSVALE TRANS. CARGAS E ENC. LTDAMICARELLI E FERRARRI LTDA          1504091453NOT150414530                                                                                                                                                 
310NOTFI150414530                                                                                                                                                                                                                               
31145990181000189244007410115   VIA ANHANGUERA KM 98                    CAMPINAS                           13065900 SP       24032009ROBERT BOSCH LIMITADA VC/PA                                                                                
312ELETROBARROS MAT.ELETR.LTDA             8246225000010853402962-40    AV.GETULIO VARGAS, 22                                       CORNELIO PROCOPIO                  86300000          PR                                              1      
313                         C07 0033439420032009FERRAMENTA                    0000200000000000359696000382900000  000000000000000000000000000000        000000000000000000000000000000000000000000000000000000002748ISP8833826351               
313                         C07 0033439820032009FERRAMENTA                    0000100000000000049728000039600000  000000000000000000000000000000        000000000000000000000000000000000000000000000000000000002748ISP8833826351               
317TRANSVALE TRANS. CARGAS E ENC. LTDA     828004670004236011979872     AV. ARTHUR THOMAZ                                           LONDRINA                           86065000          PR                                                     
312ELETROBARROS MAT.ELETR.LTDA             8246225000010853402962-40    AV.GETULIO VARGAS, 22                                       CORNELIO PROCOPIO                  86300000          PR                                              1      
313                         C07 0033543821032009FERRAMENTA                    0000400000000000218494000344400000  000000000000000000000000000000        000000000000000000000000000000000000000000000000000000002519ISP8836656351               
317TRANSVALE TRANS. CARGAS E ENC. LTDA     828004670004236011979872     AV. ARTHUR THOMAZ                                           LONDRINA                           86065000          PR                                                     
312JULIO MAEDA                             0060566200019553403520-94    AV. XV DE NOVEMBRO,702                  CENTRO              CORNELIO PROCOPIO                  86300000          PR                                              1      
313                         C07 0033406920032009FERRAMENTA                    0000100000000000060868000083300000  000000000000000000000000000000        000000000000000000000000000000000000000000000000000000001952ISP8825636351               
317TRANSVALE TRANS. CARGAS E ENC. LTDA     828004670004236011979872     AV. ARTHUR THOMAZ                                           LONDRINA                           86065000          PR                                                     
312SEMB SOCIEDADE ELETROTECNICA LTDA       75753020000132636.02860-60   AV. CURITIBA,122                                            APUCARANA                          86800005          PR                                              1      
313                         C07 0033543621032009FERRAMENTA                    0000200000000000056936000109500000  000000000000000000000000000000        000000000000000000000000000000000000000000000000000000002025ISP8836716351               
317TRANSVALE TRANS. CARGAS E ENC. LTDA     828004670004236011979872     AV. ARTHUR THOMAZ                                           LONDRINA                           86065000          PR                                                     
312J.C.CORREIA E CIA LTDA                  850724450001306020069641     R. NOVE, 496-CENTRO                                         PRIMEIRO DE MAIO                   86140000          PR                                              1      
313                         C07 0033333319032009FERRAMENTA                    0000200000000000105145000112900000  000000000000000000000000000000        000000000000000000000000000000000000000000000000000000002083ISP8825716351               
317TRANSVALE TRANS. CARGAS E ENC. LTDA     828004670004236011979872     AV. ARTHUR THOMAZ                                           LONDRINA                           86065000          PR                                                     
312DEPOSITO FERRARETO LTDA                 025260450001209015841335     ROD. CELSO GARCIA CID.             185                      LONDRINA                           86066210          PR                                              1      
313                         C07 0033333619032009FERRAMENTA                    0000500000000000192008000364000000  000000000000000000000000000000        000000000000000000000000000000000000000000000000000000002487ISP8825766351               
317TRANSVALE TRANS. CARGAS E ENC. LTDA     828004670004236011979872     AV. ARTHUR THOMAZ                                           LONDRINA                           86065000          PR                                                     
312M.MANTOVANI E CIA LTDA                  7503951100011661200867-13    AV.INDEPENDENCIA, 1420                                      BELA VISTA DO PARAISO              86130000          PR                                              1      
313                         C07 0033533621032009FERRAMENTA                    0000200000000000132711000188500000  000000000000000000000000000000        000000000000000000000000000000000000000000000000000000002116ISP8836846351               
317TRANSVALE TRANS. CARGAS E ENC. LTDA     828004670004236011979872     AV. ARTHUR THOMAZ                                           LONDRINA                           86065000          PR                                                     
312ORIVALDO JOSE JOFRE ME                  004051730001905200040840     RUA ZACARIAS GOES, 83                                       ABATIA                             86460000          PR                                              1      
313                         C07 0033438420032009FERRAMENTA                    0000100000000000075293000131700000  000000000000000000000000000000        000000000000000000000000000000000000000000000000000000002047ISP8834026351               
317TRANSVALE TRANS. CARGAS E ENC. LTDA     828004670004236011979872     AV. ARTHUR THOMAZ                                           LONDRINA                           86065000          PR                                                     
312DISMAFE FERRAMENTAS LTDA                8202800200015360121412-10    AV.DUQUE DE CAXIAS, 3647                CENTRO              LONDRINA                           86010190          PR                                              1      
313                         C07 0033395119032009FERRAMENTA                    0000300000000000226393000286500000  000000000000000000000000000000        000000000000000000000000000000000000000000000000000000002424ISP8825796351               
317TRANSVALE TRANS. CARGAS E ENC. LTDA     828004670004236011979872     AV. ARTHUR THOMAZ                                           LONDRINA                           86065000          PR                                                     
312B V PISOS E MATERIAIS DE CONSTRUCAO     07294120000198903.40381-01   R.DON FERNANDO TADDEY, 765                                  JACAREZINHO                        86400000          PR                                              1      
313                         C07 0033438820032009FERRAMENTA                    0000100000000000039290000065900000  000000000000000000000000000000        000000000000000000000000000000000000000000000000000000001926ISP8834136351               
317TRANSVALE TRANS. CARGAS E ENC. LTDA     828004670004236011979872     AV. ARTHUR THOMAZ                                           LONDRINA                           86065000          PR                                                     
312CRAF-MAQUINAS E FERRAMENTAS LTDA        7860009500017160101807-14    R.MANAUS, 51                                                LONDRINA                           86020560          PR                                              1      
313                         C07 0033566521032009FERRAMENTA                    0000100000000000125667000141000000  000000000000000000000000000000        000000000000000000000000000000000000000000000000000000002108ISP8837106351               
317TRANSVALE TRANS. CARGAS E ENC. LTDA     828004670004236011979872     AV. ARTHUR THOMAZ                                           LONDRINA                           86065000          PR                                                     
312MONFER COM DE FERRAGENS LTDA ME         8265671100018360123626-58    AV.DUQUE DE CAXIAS, 3499                CENTRO              LONDRINA                           86010200          PR                                              1      
313                         C07 0033543421032009FERRAMENTA                    0000200000000000406195000396200000  000000000000000000000000000000        000000000000000000000000000000000000000000000000000000006211ISP8836366351               
313                         C07 0033551921032009FERRAMENTA                    0000700000000000656402000914000000  000000000000000000000000000000        000000000000000000000000000000000000000000000000000000006211ISP8836366351               
313                         C07 0033564521032009FERRAMENTA                    0000500000000000256176000524000000  000000000000000000000000000000        000000000000000000000000000000000000000000000000000000006211ISP8836366351               
317TRANSVALE TRANS. CARGAS E ENC. LTDA     828004670004236011979872     AV. ARTHUR THOMAZ                                           LONDRINA                           86065000          PR                                                     
312MONTANARI MATS P/ CONSTR LTDA           8548293300011561102912-89    RODOV CELSO GARCIA SID             3050 NOVO BANDEIRANTES   CAMBE                              86188100          PR                                              1      
313                         C07 0033333519032009FERRAMENTA                    0000300000000000121323000247700000  000000000000000000000000000000        000000000000000000000000000000000000000000000000000000002890ISP8825436351               
313                         C07 0033333819032009FERRAMENTA                    0000200000000000133833000262100000  000000000000000000000000000000        000000000000000000000000000000000000000000000000000000002890ISP8825436351               
317TRANSVALE TRANS. CARGAS E ENC. LTDA     828004670004236011979872     AV. ARTHUR THOMAZ                                           LONDRINA                           86065000          PR                                                     
312W.S BARROS E CIA LTDA                   03253567000168901.87739-42   AV. GETULIO VARGAS                 265                      CORNELIO PROCOPIO                  86300000          PR                                              1      
313                         C07 0033533321032009FERRAMENTA                    0000200000000000122921000142300000  000000000000000000000000000000        000000000000000000000000000000000000000000000000000000002105ISP8837116351               
317TRANSVALE TRANS. CARGAS E ENC. LTDA     828004670004236011979872     AV. ARTHUR THOMAZ                                           LONDRINA                           86065000          PR                                                     
312JAU MATS. ELETRS. FERRAMENTAS LTD       036492040001469020405101     AV. CURITIBA,2152                       CENTRO              APUCARANA                          86800000          PR                                              1      
313                         C07 0033438720032009FERRAMENTA                    0000200000000000086522000176900000  000000000000000000000000000000        000000000000000000000000000000000000000000000000000000002061ISP8834306351               
317TRANSVALE TRANS. CARGAS E ENC. LTDA     828004670004236011979872     AV. ARTHUR THOMAZ                                           LONDRINA                           86065000          PR                                                     
31145990181000189244007410115   VIA ANHAMGUERA KM 98                    CAMPINAS                           13065900 SP       24032009ROBERT BOSCH LIMITADA VC/PA                                                                                
312PELLEGRINO DISTR DE AUTOPECAS LTDA      425800920019039029599634     AV BRASILIA 3055                        NOSSA SENHORA DO DESLONDRINA                           86025180          PR                                              1      
313                         C07 0033241018032009AUTOPECAS                     0004100000000000645625007556400000  000000000000000000000000000000        000000000000000000000000000000000000000000000000000000024904ISP8833726351               
313                         C07 0033518721032009AUTOPECAS                     0000200000000000066108000005300000  000000000000000000000000000000        000000000000000000000000000000000000000000000000000000024904ISP8833726351               
313                         C07 0033518821032009AUTOPECAS                     0001400000000002902442000803400000  000000000000000000000000000000        000000000000000000000000000000000000000000000000000000024904ISP8833726351               
313                         C07 0033518921032009AUTOPECAS                     0000600000000000054075000305000000  000000000000000000000000000000        000000000000000000000000000000000000000000000000000000024904ISP8833726351               
317TRANSVALE TRANS. CARGAS E ENC. LTDA     828004670004236011979872     AV. ARTHUR THOMAZ                                           LONDRINA                           86065000          PR                                                     
312ELETROPAR AUTOPECAS LTDA                765235540022609037091704     RUA GUAPORE, 1188                       JARDIM PALMARES     LONDRINA                           86025000          PR                                              1      
313                         C07 0033433620032009AUTOPECAS                     0000200000000000252108000035100000  000000000000000000000000000000        000000000000000000000000000000000000000000000000000000002301ISP8833656351               
313                         C07 0033433820032009AUTOPECAS                     0000600000000000034743000100200000  000000000000000000000000000000        000000000000000000000000000000000000000000000000000000002301ISP8833656351               
317TRANSVALE TRANS. CARGAS E ENC. LTDA     828004670004236011979872     AV. ARTHUR THOMAZ                                           LONDRINA                           86065000          PR                                                     
312PELLEGRINO DISTR DE AUTOPECAS LTDA      425800920019039029599634     AVENIDA BRASILIA     3055               NOSSA SENHORA DO DESLONDRINA                           86025180          PR                                              1      
313                         C07 0033326819032009AUTOPECAS                     0000100000000000035150000200000000  000000000000000000000000000000        000000000000000000000000000000000000000000000000000000010327ISP8825246351               
313                         C07 0033327119032009AUTOPECAS                     0000200000000000230679000083400000  000000000000000000000000000000        000000000000000000000000000000000000000000000000000000010327ISP8825246351               
313                         C07 0033370219032009AUTOPECAS                     0001700000000000868705000520600000  000000000000000000000000000000        000000000000000000000000000000000000000000000000000000010327ISP8825246351               
313                         C07 0033370319032009AUTOPECAS                     0000200000000000043247000085900000  000000000000000000000000000000        000000000000000000000000000000000000000000000000000000010327ISP8825246351               
313                         C07 0033370419032009AUTOPECAS                     0001000000000000732914001599900000  000000000000000000000000000000        000000000000000000000000000000000000000000000000000000010327ISP8825246351               
313                         C07 0033370519032009AUTOPECAS                     0000800000000000048360000630300000  000000000000000000000000000000        000000000000000000000000000000000000000000000000000000010327ISP8825246351               
313                         C07 0033414520032009AUTOPECAS                     0000300000000000102626000225700000  000000000000000000000000000000        000000000000000000000000000000000000000000000000000000010327ISP8825246351               
317TRANSVALE TRANS. CARGAS E ENC. LTDA     828004670004236011979872     AV. ARTHUR THOMAZ                                           LONDRINA                           86065000          PR                                                     
312POLIPECAS COM. IMP. REP. LTDA           022222890012719040888621     RUA DANILO ORCELLI 112                                      LONDRINA                           86075150          PR                                              1      
313                         C07 0033433720032009AUTOPECAS                     0000600000000000248755000365900000  000000000000000000000000000000        000000000000000000000000000000000000000000000000000000003101ISP8833686351               
313                         C07 0033433920032009AUTOPECAS                     0000200000000000181833000183500000  000000000000000000000000000000        000000000000000000000000000000000000000000000000000000003101ISP8833686351               
317TRANSVALE TRANS. CARGAS E ENC. LTDA     828004670004236011979872     AV. ARTHUR THOMAZ                                           LONDRINA                           86065000          PR                                                     
31104781015000195116297295110   R PROF M DE LOURDES DE S. NOGUEIRA 154  SAO PAULO                          04692000 SP       24032009ZBA COM.PRODS.AUTOMOTIVOS LTDA                                                                             
312ROBSON FERNANDO GABRIEL                 00710357966   ISENTO         RUA TEODORO BONFANT 63                                      BANDEIRANTES                       86360000          PR                                              2      
313                         C0  0001249823032009PECAS                         0000200000000000023632000180000000  000000000000000000000000000000        000000000000000000000000000000000000000000307000000000002555ISP8847596353               
317TRANSVALE TRANS. CARGAS E ENC. LTDA     828004670004236011979872     AV. ARTHUR THOMAZ                                           LONDRINA                           86065000          PR                                                     
31101107391000100114815002118   RUA GOMES DE CARVALHO 1510              SAO PAULO                          04547005 SP       24032009SUPPORT PRODUTOS NUTRICIONAIS LTDA                                                                         
312JULIANA DAUDT CONSULIN                  03544081946   ISENTO         R CLEVELANDIA 18                                            LONDRINA                           86060410          PR                                              2      
313                         C2  0015518420032009AM.GRATIS                     0000100000000000000730000004700000  000000000000000000000000000000        000000000000000000000000000000000000000000000000000000002468ISP8847996351               
317TRANSVALE TRANS. CARGAS E ENC. LTDA     828004670004236011979872     AV. ARTHUR THOMAZ                                           LONDRINA                           86065000          PR                                                     
31154470430000104370027504117   ESTRADA DE ITAPECERICA,  200 KM 31,5    ITAPECERICA DA SERRA               06859100 SP       24032009FLORENCE INDL E COML LTDA                                                                                  
312DIRCEU YODI KUBO                        105972980001129046803628     AV 14 DE DEZEMBRO 615                                       NOVA FATIMA                        86310000          PR                                              1      
313                         CUNI0016402323032009DIVERSOS                      0000100000000000069923000030000000  000000000000000000000000000000        000000000000000000000000000000000000000000291000000000002426ISP8847566353               
317TRANSVALE TRANS. CARGAS E ENC. LTDA     828004670004236011979872     AV. ARTHUR THOMAZ                                           LONDRINA                           86065000          PR                                                     
311611892880180459038129829     AVENIDA BRASIL 988 /1000                FOZ DO IGUACU                      85851000 PR       24032009MARISA LOJAS VAREJISTAS LTDA                                                                               
312MARISA LOJAS VAREJISTAS LTDA            611892880246069037886740     RUA MINAS GERAIS, 261 Q 18 LT 5A        CENTRO              LONDRINA                           86010170          PR                                              1      
313                         C3  0010847621032009CONFCCOES                     0000700000000000104506000280000000  000000000000000000000000000000        000000000000000000000000000000000000000000427000000000003556ISP8840746353               
317TRANSVALE TRANS. CARGAS E ENC. LTDA     828004670004236011979872     AV. ARTHUR THOMAZ                                           LONDRINA                           86065000          PR                                                     
312MARISA LOJAS VAREJISTAS LTDA            611892880246069037886740     RUA MINAS GERAIS, 261 Q 18 LT 5A        CENTRO              LONDRINA                           86010170          PR                                              1      
313                         C3  0010847821032009CONFCCOES                     0003000000000000752089001200000000  000000000000000000000000000000        000000000000000000000000000000000000000001129000000000009409ISP8840736353               
317TRANSVALE TRANS. CARGAS E ENC. LTDA     828004670004236011979872     AV. ARTHUR THOMAZ                                           LONDRINA                           86065000          PR                                                     
312MARISA LOJAS VAREJISTAS LTDA            611892880246069037886740     RUA MINAS GERAIS, 261 Q 18 LT 5A        CENTRO              LONDRINA                           86010170          PR                                              1      
313                         CS1 0010824320032009CONFCCOES                     0003100000000000255092001240000000  000000000000000000000000000000        000000000000000000000000000000000000000000815000000000006789ISP8830196353               
317TRANSVALE TRANS. CARGAS E ENC. LTDA     828004670004236011979872     AV. ARTHUR THOMAZ                                           LONDRINA                           86065000          PR                                                     
312MARISA LOJAS VAREJISTAS LTDA            611892880166979011555699     ROD. CELSO GARCIA CID S/NR. KM 377 LJ B1PORTAL DE VERSALHES LONDRINA                           86057230          PR                                              1      
313                         CS1 0010824220032009CONFCCOES                     0000700000000000268966000280000000  000000000000000000000000000000        000000000000000000000000000000000000000000449000000000003742ISP8830226353               
317TRANSVALE TRANS. CARGAS E ENC. LTDA     828004670004236011979872     AV. ARTHUR THOMAZ                                           LONDRINA                           86065000          PR                                                     
312MARISA LOJAS VAREJISTAS LTDA            611892880166979011555699     ROD. CELSO GARCIA CID S/NR. KM 377 LJ B1PORTAL DE VERSALHES LONDRINA                           86057230          PR                                              1      
313                         C3  0010847521032009CONFCCOES                     0001600000000000376514000640000000  000000000000000000000000000000        000000000000000000000000000000000000000000585000000000004875ISP8840756353               
317TRANSVALE TRANS. CARGAS E ENC. LTDA     828004670004236011979872     AV. ARTHUR THOMAZ                                           LONDRINA                           86065000          PR                                                     
31143587344000585116746044111   VIA ANHANGUERA, KM 15, MOD. 1 E 2       SAO PAULO                          05112000 SP       24032009B S DISTR DE PRODS DE HIGIENE LTDA                                                                         
312PEDRO MUFFATO E CIA LTDA                814337650024039022618005     RUA ROMAT WALTER SODRE 3300                                 IBIPORA                            86200000          PR                                              1      
313                         CU  0012592123032009COSMETICOS                    0014000000000000364528003534000000  000000000000000000000000000000        000000000000000000000000000000000000000002329000000000019409ISP8847736352               
317TRANSVALE TRANS. CARGAS E ENC. LTDA     828004670004236011979872     AV. ARTHUR THOMAZ                                           LONDRINA                           86065000          PR                                                     
312CASA VISCARDI S/A - COM. E IMP.         785884310001086010297824     R RIO GRANDE DO NORTE              105                      LONDRINA                           86026420          PR                                              1      
313                         CU  0012592223032009COSMETICOS                    0001800000000000118642000320500000  000000000000000000000000000000        000000000000000000000000000000000000000001112000000000009264ISP8847746352               
317TRANSVALE TRANS. CARGAS E ENC. LTDA     828004670004236011979872     AV. ARTHUR THOMAZ                                           LONDRINA                           86065000          PR                                                     
31108098571000201206237690111   AVENIDA PIRACEMA,121 - GALPAO 1         BARUERI                            06465060 SP       24032009APROV COMERCIO DE COSMETICOS LTDA                                                                          
312F M KAI E CIA LTDA                      053102800001589026685513     RUA MARANHAO 177 LOJA 1                 CENTRO              LONDRINA                           86010903          PR                                              1      
313                         C1  0000276020032009COSMETICOS                    0000100000000000009687000050000000  000000000000000000000000000000        000000000000000000000000000000000000000000613000000000005105ISP8824996353               
317TRANSVALE TRANS. CARGAS E ENC. LTDA     828004670004236011979872     AV. ARTHUR THOMAZ                                           LONDRINA                           86065000          PR                                                     
31102932074001325206257584110   AV. FERN. CERQUEIRA CESAR COIMBRA 1000  BARUERI                            06465090 SP       24032009HYPERMARCAS S/A                                                                                            
312MERCANTIL FARMED LTDA                   466425670010539027848459     RUA MESSIAS WILMAR DE SOUZA,300         JARDIM GUAPORE      LONDRINA                           86025190          PR                                              1      
313                         C1  0003479121032009SOLIDOS                       0001800000000001145862000259200000  000000000000000000000000000000        000000000000000000000000000000000000000001560000000000012998ISP8830656353               
313                         C1  0003479621032009SEMI-SOLID                    0002000000000001003065000705200000  000000000000000000000000000000        000000000000000000000000000000000000000001560000000000012998ISP8830656353               
313                         C1  0003479721032009LIQUIDOS                      0000100000000000035650000014000000  000000000000000000000000000000        000000000000000000000000000000000000000001560000000000012998ISP8830656353               
317TRANSVALE TRANS. CARGAS E ENC. LTDA     828004670004236011979872     AV. ARTHUR THOMAZ                                           LONDRINA                           86065000          PR                                                     
312IRMAOS MUFFATO CIA LTDA                 7643043800319790173156-06    ROD. CELSO GARCIA CID 1736                                  CAMBE                              86198000          PR                                              1      
313                         C1  0003479421032009SOLIDOS                       0005700000000001645998001921900000  000000000000000000000000000000        000000000000000000000000000000000000000002243000000000018690ISP8830696353               
317TRANSVALE TRANS. CARGAS E ENC. LTDA     828004670004236011979872     AV. ARTHUR THOMAZ                                           LONDRINA                           86065000          PR                                                     
312UNIPORT ATACADO E DIST. DE ALIM. LTDA   000569400002836280467357     AV MARACANA, 5980                                           ARAPONGAS                          86703000          PR                                              1      
313                         C1  0003479321032009LIQUIDOS                      0011300000000004671549003152100000  000000000000000000000000000000        000000000000000000000000000000000000000003885000000000032375ISP8830726353               
317TRANSVALE TRANS. CARGAS E ENC. LTDA     828004670004236011979872     AV. ARTHUR THOMAZ                                           LONDRINA                           86065000          PR                                                     
31161418042000301623106983115   ALAMEDA AFRICA 570 - GLEBAY POLO EMPR.  SANTANA DE PARNAIBA                06543306 SP       24032009CIRURGICA FERNANDES COM.DE MAT. CIRUR.                                                                     
312CASA DE MIS.DE CORNELIO PROCOPIO - PR   76256064000110534.006.497-8  AV. NOSSA SENHORA DO ROCIO , 1165       CENTRO              CORNELIO PROCOPIO                  86300000          PR                                              1      
313                         C1  0000872823032009PROD. HOSP                    0000200000000000064234000102100000  000000000000000000000000000000        000000000000000000000000000000000000000000300000000000002500ISP8848156353               
317TRANSVALE TRANS. CARGAS E ENC. LTDA     828004670004236011979872     AV. ARTHUR THOMAZ                                           LONDRINA                           86065000          PR                                                     
312HOSP ARAUCARIA DE LONDRINA LTDA         08271755000132ISENTO         R CAMPO GRANDE,211                      JD COLINA GRANDE    LONDRINA                           86050550          PR                                              1      
313                         C1  0000872023032009PROD. HOSP                    0000900000000000090003000052900000  000000000000000000000000000000        000000000000000000000000000000000000000000312000000000002603ISP8848146353               
317TRANSVALE TRANS. CARGAS E ENC. LTDA     828004670004236011979872     AV. ARTHUR THOMAZ                                           LONDRINA                           86065000          PR                                                     
31161369856004110492510556110   VIA ANHANGUERA S/N ALT  KM 19 SETOR A   SAO PAULO                          05113000 SP       24032009B.F. UTILIDADES DOMESTICAS LTDA                                                                            
312LAURA FUGIMOTO                          12028924934   ISENTO         RUA MARIA DE OLIVEIRA MELO 693          VALE DE SAN IZIDRO  LONDRINA                           86040500          PR                                              2      
313                         C1  0009311823032009COMERCIAL                     0000100000000000055092000230000000  000000000000000000000000000000        000000000000000000000000000000000000000000366000000000003048ISP8847806353               
317TRANSVALE TRANS. CARGAS E ENC. LTDA     828004670004236011979872     AV. ARTHUR THOMAZ                                           LONDRINA                           86065000          PR                                                     
31105342254000101278145115113   RUA INDOCHINA 219                       COTIA                              06713030 SP       24032009NOVASTAR COM. E DISTR. DE PECAS PARA AUT                                                                   
312WALTER MASSAO CURIAKI E CIA LTDA        102483630001029045002087     R MADRE LEONIA MILITO 834               GUANABARA           LONDRINA                           86050180          PR                                              1      
313                         CUNI0001695723032009PECAS                         0000300000000000064980000720000000  000000000000000000000000000000        000000000000000000000000000000000000000000585000000000004878ISP8843036353               
317TRANSVALE TRANS. CARGAS E ENC. LTDA     828004670004236011979872     AV. ARTHUR THOMAZ                                           LONDRINA                           86065000          PR                                                     
318000000020993713000000000325306000000000000000000000000064800000000000000000000000000000000                                                                                                                                                   
